:1000000012C021C020C01FC01EC01DC01CC01BC00C
:100010001AC027C018C017C016C015C014C013C01E
:1000200012C011C010C011241FBECFE5D4E0DEBF46
:10003000CDBF20E0A0E6B0E001C01D92A936B20716
:10004000E1F705D071C0DCCF08950895089553D02D
:10005000FDDFFADFC0E0D0E0F8DF2097E9F3D0DF82
:10006000FBCF1F920F920FB60F9211242F933F9345
:100070008F939F93AF93BF9380916500909166009B
:10008000A0916700B09168003091640023E0230FD5
:100090002D3768F126E8230F0296A11DB11D20938C
:1000A00064008093650090936600A0936700B0930E
:1000B00068008091600090916100A0916200B09111
:1000C00063000196A11DB11D8093600090936100B3
:1000D000A0936200B0936300BF91AF919F918F9105
:1000E0003F912F910F900FBE0F901F901895019682
:1000F000A11DB11DD4CF789483B7836083BF89B726
:10010000816089BF82E08EBD8EB581608EBD8FB566
:1001100081608FBD85B5846085BD85B5806485BDF2
:0C01200087E886B91AB80895F894FFCF5C
:00000001FF
